:020000002829AD
:10000600710DF80DF90D7408F8027508031C750FCB
:10001600F902F00DF10D0F30FC00710DF80DF90D20
:100026007408701C1C28F8027508031C750FF90269
:100036002128F80775080318750FF907F00DF10D5B
:10004600FC0B102870182D287408F807750803187B
:08005600750FF9070000080016
:10005E00831203130C1083160C1083129010101AB7
:0A006E003A2890163B289012080073
:10007800B130831203138F00DF308E0005130000A8
:1000880000000000000005170630FD00FD0B4A289F
:1000980000000513851F4E281014851B5528741061
:1000A800562874140C185A2803145B280310741C5F
:1000B8006128031C6128741462287410741851286C
:1000C80010100C100F08C500C6010E08C300C401AB
:1000D8004508F100F0017008C5007108C60000303D
:1000E8007005F2007108FF39F3007208C500730843
:1000F800C600FF304305F0004408F1000030F10568
:100108007008C3007108C4007208F0047308F10491
:100118007008C5007108C6007008F5007108F6007F
:100128000030F61BFF30F700F8007508F00076087D
:0C013800F1007708F2007808F3000800DE
:1001440083120313F801F9011030FC00710DF80D4E
:10015400F90D7408F8027508031C750FF9020318E9
:10016400BA287408F80775080318750FF9070310FF
:0A017400F00DF10DFC0BA8280800A7
:10017E00831203137408003A031DCE287508003A43
:10018E00031DCE28FF30F0007F30F10027298312A7
:10019E000313FD01F901F80171087004031900340D
:1001AE0071087506FA00FA1BFD09FB01F51FE4281C
:1001BE00F409F509F40A0319F50AF11FEB28F00901
:1001CE00F109F00A0319F10A71087504FA00FA1B15
:1001DE00002903207B181329FD1F0034F009F109B3
:1001EE00F00A0319F10AF809F909F80A0319F90ACC
:1001FE000034F51F0F29F11B0B297108F900700847
:10020E00F800F101F001F328F101F001F00A0034D9
:10021E00F109F009FB0AF028F80A0319F90A740823
:10022E007802031DF32875087902031DF328F901DE
:10023E00F801F00A0319F10AF11FF3280000FF3448
:02024E000800A6
:10025000831203139F0183169B0107309C00B83063
:1002600085008601831285018601C501C601C3018F
:10027000C4012F200D30FC00FB30FD00FD0B3E299A
:10028000FC0B3E2900000000C101C201BC01BA0103
:10029000BB01BF01C001BD01BE01A201A301A001BC
:1002A000A101BF30A600A7018630A800A901DB305C
:1002B000AA00AB01CF30AC00AD01E630AE00AF011B
:1002C000ED30B000B101FD30B200B3018730B400B1
:1002D000B501FF30B600B701EF30B800B9013C20DE
:1002E0007008A4007108A500DF30F002031CF103C0
:1002F000B130F1021D30F400F501A2207008A40015
:100300007108A5000330FC009730FD00FD0B862925
:10031000FC0B8629000000004108A0004208A10053
:100320000A30F400F5014108F0004208F100BF2056
:100330007808F0007908F1007008BF007108C0006B
:100340000A30F400F5012008F0002108F100BF2078
:100350007008A0007108A1000A30F400F501BF2068
:100360007808F0007908F1007008BD007108BE003F
:100370000A30F400F5012008F0002108F100BF2048
:100380007008A0007108A1000A30F400F501BF2038
:100390007808F0007908F1007008A2007108A30045
:1003A0003F08F0004008F100F00DF10D70107008EA
:1003B000263E840000088600033085000D30FC00D6
:1003C000FB30FD00FD0BE229FC0BE22900000000E0
:1003D000FF3085003D08F0003E08F100F00DF10D02
:1003E00070107008263E84000008860005308500E5
:1003F0000D30FC00FB30FD00FD0BFC29FC0BFC2943
:10040000000000000F3085002208F0002308F100F2
:10041000F00DF10D70107008263E84000008860073
:10042000063085000D30FC00FB30FD00FD0B162A68
:10043000FC0B162A000000000F308500BC0A2408BF
:10044000BA0725080318013EBB078030053AF000C3
:1004500080303C06700203183C2A0630F400F50197
:100460003A08F0003B08F100BF207008C100710895
:0C047000C200BC01BA01BB016F293D2A8B
:04400E00783FFF3FB9
:00000001FF
